{
  "contractName": "Controlled",
  "abi": [
    {
      "constant": true,
      "inputs": [],
      "name": "totalSupply",
      "outputs": [
        {
          "name": "supply",
          "type": "uint256"
        }
      ],
      "payable": false,
      "stateMutability": "view",
      "type": "function"
    },
    {
      "constant": false,
      "inputs": [
        {
          "name": "_from",
          "type": "address"
        },
        {
          "name": "_to",
          "type": "address"
        },
        {
          "name": "_value",
          "type": "uint256"
        }
      ],
      "name": "transferFrom",
      "outputs": [
        {
          "name": "success",
          "type": "bool"
        }
      ],
      "payable": false,
      "stateMutability": "nonpayable",
      "type": "function"
    },
    {
      "constant": true,
      "inputs": [
        {
          "name": "_owner",
          "type": "address"
        }
      ],
      "name": "balanceOf",
      "outputs": [
        {
          "name": "balance",
          "type": "uint256"
        }
      ],
      "payable": false,
      "stateMutability": "view",
      "type": "function"
    },
    {
      "constant": false,
      "inputs": [
        {
          "name": "_to",
          "type": "address"
        },
        {
          "name": "_value",
          "type": "uint256"
        }
      ],
      "name": "transfer",
      "outputs": [
        {
          "name": "success",
          "type": "bool"
        }
      ],
      "payable": false,
      "stateMutability": "nonpayable",
      "type": "function"
    },
    {
      "inputs": [],
      "payable": false,
      "stateMutability": "nonpayable",
      "type": "constructor"
    },
    {
      "anonymous": false,
      "inputs": [
        {
          "indexed": true,
          "name": "_from",
          "type": "address"
        },
        {
          "indexed": true,
          "name": "_to",
          "type": "address"
        },
        {
          "indexed": false,
          "name": "_value",
          "type": "uint256"
        }
      ],
      "name": "Transfer",
      "type": "event"
    },
    {
      "constant": false,
      "inputs": [],
      "name": "kill",
      "outputs": [],
      "payable": false,
      "stateMutability": "nonpayable",
      "type": "function"
    }
  ],
  "bytecode": "0x6060604052341561000f57600080fd5b336000806101000a81548173ffffffffffffffffffffffffffffffffffffffff021916908373ffffffffffffffffffffffffffffffffffffffff1602179055506102ae8061005e6000396000f30060606040526004361061006d576000357c0100000000000000000000000000000000000000000000000000000000900463ffffffff16806318160ddd1461007257806323b872dd1461009b57806341c0e1b51461011457806370a0823114610129578063a9059cbb14610176575b600080fd5b341561007d57600080fd5b6100856101d0565b6040518082815260200191505060405180910390f35b34156100a657600080fd5b6100fa600480803573ffffffffffffffffffffffffffffffffffffffff1690602001909190803573ffffffffffffffffffffffffffffffffffffffff169060200190919080359060200190919050506101d5565b604051808215151515815260200191505060405180910390f35b341561011f57600080fd5b6101276101de565b005b341561013457600080fd5b610160600480803573ffffffffffffffffffffffffffffffffffffffff16906020019091905050610273565b6040518082815260200191505060405180910390f35b341561018157600080fd5b6101b6600480803573ffffffffffffffffffffffffffffffffffffffff1690602001909190803590602001909190505061027a565b604051808215151515815260200191505060405180910390f35b600090565b60009392505050565b6000809054906101000a900473ffffffffffffffffffffffffffffffffffffffff1673ffffffffffffffffffffffffffffffffffffffff163373ffffffffffffffffffffffffffffffffffffffff1614151561023957600080fd5b6000809054906101000a900473ffffffffffffffffffffffffffffffffffffffff1673ffffffffffffffffffffffffffffffffffffffff16ff5b6000919050565b6000929150505600a165627a7a72305820b0939a6452ee777b7ada66e8542d40021e42c0a655603508a3604773c3ae105d0029",
  "source": "pragma solidity ^0.4.4;\n \n import \"./Token.sol\";\ncontract Controlled is Token{\n    address creator;\n    function Controlled() public {\n        creator =msg.sender;\n    }\n      \n    // modifier\n    \n    modifier onlyCreator {\n        // if the sender is the \"admin\" run whatever function (_;) else throw an exception\n        require (msg.sender ==creator);\n        _;\n    }\n    \n    function kill() onlyCreator{\n       \n            selfdestruct(creator);\n    \n    }\n      \n}\n",
  "sourcePath": "D:\\Truffle\\LUV\\contracts\\Controlled.sol",
  "compiler": {
    "name": "solc",
    "version": "0.4.19+commit.c4cbbb05.Emscripten.clang"
  },
  "schemaVersion": "1.0.1",
  "updatedAt": "2018-02-21T01:27:23.074Z"
}