{
  "contractName": "sendTracker",
  "abi": [
    {
      "constant": true,
      "inputs": [
        {
          "name": "",
          "type": "uint256"
        }
      ],
      "name": "userAccts",
      "outputs": [
        {
          "name": "",
          "type": "address"
        }
      ],
      "payable": false,
      "stateMutability": "view",
      "type": "function"
    },
    {
      "constant": true,
      "inputs": [],
      "name": "totalSupply",
      "outputs": [
        {
          "name": "",
          "type": "uint256"
        }
      ],
      "payable": false,
      "stateMutability": "view",
      "type": "function"
    },
    {
      "constant": false,
      "inputs": [
        {
          "name": "_from",
          "type": "address"
        },
        {
          "name": "_to",
          "type": "address"
        },
        {
          "name": "_value",
          "type": "uint256"
        }
      ],
      "name": "transferFrom",
      "outputs": [
        {
          "name": "success",
          "type": "bool"
        }
      ],
      "payable": false,
      "stateMutability": "nonpayable",
      "type": "function"
    },
    {
      "constant": false,
      "inputs": [],
      "name": "kill",
      "outputs": [],
      "payable": false,
      "stateMutability": "nonpayable",
      "type": "function"
    },
    {
      "constant": true,
      "inputs": [],
      "name": "totalUnallocated",
      "outputs": [
        {
          "name": "",
          "type": "uint256"
        }
      ],
      "payable": false,
      "stateMutability": "view",
      "type": "function"
    },
    {
      "constant": true,
      "inputs": [],
      "name": "totalSends",
      "outputs": [
        {
          "name": "",
          "type": "uint256"
        }
      ],
      "payable": false,
      "stateMutability": "view",
      "type": "function"
    },
    {
      "anonymous": false,
      "inputs": [
        {
          "indexed": false,
          "name": "numSends",
          "type": "uint256"
        },
        {
          "indexed": false,
          "name": "userName",
          "type": "bytes16"
        },
        {
          "indexed": false,
          "name": "balance",
          "type": "uint256"
        }
      ],
      "name": "UserInfo",
      "type": "event"
    },
    {
      "anonymous": false,
      "inputs": [
        {
          "indexed": true,
          "name": "_from",
          "type": "address"
        },
        {
          "indexed": true,
          "name": "_to",
          "type": "address"
        },
        {
          "indexed": false,
          "name": "_value",
          "type": "uint256"
        }
      ],
      "name": "Transfer",
      "type": "event"
    },
    {
      "constant": false,
      "inputs": [
        {
          "name": "_address",
          "type": "address"
        },
        {
          "name": "_userName",
          "type": "bytes16"
        }
      ],
      "name": "setUser",
      "outputs": [],
      "payable": false,
      "stateMutability": "nonpayable",
      "type": "function"
    },
    {
      "constant": true,
      "inputs": [],
      "name": "getUsers",
      "outputs": [
        {
          "name": "",
          "type": "address[]"
        }
      ],
      "payable": false,
      "stateMutability": "view",
      "type": "function"
    },
    {
      "constant": true,
      "inputs": [
        {
          "name": "_address",
          "type": "address"
        }
      ],
      "name": "getUser",
      "outputs": [
        {
          "name": "",
          "type": "uint256"
        },
        {
          "name": "",
          "type": "bytes16"
        }
      ],
      "payable": false,
      "stateMutability": "view",
      "type": "function"
    },
    {
      "constant": true,
      "inputs": [],
      "name": "countUsers",
      "outputs": [
        {
          "name": "",
          "type": "uint256"
        }
      ],
      "payable": false,
      "stateMutability": "view",
      "type": "function"
    },
    {
      "constant": false,
      "inputs": [
        {
          "name": "_to",
          "type": "address"
        },
        {
          "name": "_value",
          "type": "uint256"
        }
      ],
      "name": "transfer",
      "outputs": [
        {
          "name": "success",
          "type": "bool"
        }
      ],
      "payable": false,
      "stateMutability": "nonpayable",
      "type": "function"
    },
    {
      "constant": true,
      "inputs": [
        {
          "name": "_owner",
          "type": "address"
        }
      ],
      "name": "balanceOf",
      "outputs": [
        {
          "name": "balance",
          "type": "uint256"
        }
      ],
      "payable": false,
      "stateMutability": "view",
      "type": "function"
    },
    {
      "constant": true,
      "inputs": [
        {
          "name": "_owner",
          "type": "address"
        }
      ],
      "name": "numSendsOf",
      "outputs": [
        {
          "name": "balance",
          "type": "uint256"
        }
      ],
      "payable": false,
      "stateMutability": "view",
      "type": "function"
    }
  ],
  "bytecode": "0x60606040526000600155620186a0600255620186a0600355336000806101000a81548173ffffffffffffffffffffffffffffffffffffffff021916908373ffffffffffffffffffffffffffffffffffffffff160217905550610b48806100666000396000f3006060604052600436106100c4576000357c0100000000000000000000000000000000000000000000000000000000900463ffffffff168062ce8e3e146100c95780630ab2bb131461013357806318160ddd1461019657806323b872dd146101bf57806341c0e1b5146102385780634747efeb1461024d5780634879ea87146102a25780636f77926b146102cb57806370a0823114610345578063a9059cbb14610392578063b2d45978146103ec578063bcfe778614610415578063f8fb1d0f14610462575b600080fd5b34156100d457600080fd5b6100dc61048b565b6040518080602001828103825283818151815260200191508051906020019060200280838360005b8381101561011f578082015181840152602081019050610104565b505050509050019250505060405180910390f35b341561013e57600080fd5b610154600480803590602001909190505061051f565b604051808273ffffffffffffffffffffffffffffffffffffffff1673ffffffffffffffffffffffffffffffffffffffff16815260200191505060405180910390f35b34156101a157600080fd5b6101a961055e565b6040518082815260200191505060405180910390f35b34156101ca57600080fd5b61021e600480803573ffffffffffffffffffffffffffffffffffffffff1690602001909190803573ffffffffffffffffffffffffffffffffffffffff16906020019091908035906020019091905050610564565b604051808215151515815260200191505060405180910390f35b341561024357600080fd5b61024b61056d565b005b341561025857600080fd5b6102a0600480803573ffffffffffffffffffffffffffffffffffffffff169060200190919080356fffffffffffffffffffffffffffffffff1916906020019091905050610602565b005b34156102ad57600080fd5b6102b5610784565b6040518082815260200191505060405180910390f35b34156102d657600080fd5b610302600480803573ffffffffffffffffffffffffffffffffffffffff1690602001909190505061078a565b60405180838152602001826fffffffffffffffffffffffffffffffff19166fffffffffffffffffffffffffffffffff191681526020019250505060405180910390f35b341561035057600080fd5b61037c600480803573ffffffffffffffffffffffffffffffffffffffff16906020019091905050610839565b6040518082815260200191505060405180910390f35b341561039d57600080fd5b6103d2600480803573ffffffffffffffffffffffffffffffffffffffff16906020019091908035906020019091905050610885565b604051808215151515815260200191505060405180910390f35b34156103f757600080fd5b6103ff610a58565b6040518082815260200191505060405180910390f35b341561042057600080fd5b61044c600480803573ffffffffffffffffffffffffffffffffffffffff16906020019091905050610a5e565b6040518082815260200191505060405180910390f35b341561046d57600080fd5b610475610aaa565b6040518082815260200191505060405180910390f35b610493610ab7565b600580548060200260200160405190810160405280929190818152602001828054801561051557602002820191906000526020600020905b8160009054906101000a900473ffffffffffffffffffffffffffffffffffffffff1673ffffffffffffffffffffffffffffffffffffffff16815260200190600101908083116104cb575b5050505050905090565b60058181548110151561052e57fe5b90600052602060002090016000915054906101000a900473ffffffffffffffffffffffffffffffffffffffff1681565b60025481565b60009392505050565b6000809054906101000a900473ffffffffffffffffffffffffffffffffffffffff1673ffffffffffffffffffffffffffffffffffffffff163373ffffffffffffffffffffffffffffffffffffffff161415156105c857600080fd5b6000809054906101000a900473ffffffffffffffffffffffffffffffffffffffff1673ffffffffffffffffffffffffffffffffffffffff16ff5b6000600460008473ffffffffffffffffffffffffffffffffffffffff1673ffffffffffffffffffffffffffffffffffffffff168152602001908152602001600020905060008160000181905550818160010160006101000a8154816fffffffffffffffffffffffffffffffff0219169083700100000000000000000000000000000000900402179055506103e86003600082825403925050819055506103e881600201819055506001600580548060010182816106bf9190610acb565b9160005260206000209001600086909190916101000a81548173ffffffffffffffffffffffffffffffffffffffff021916908373ffffffffffffffffffffffffffffffffffffffff16021790555050507f087ff89487f2cb2caf05a51c7f9d2da77843ac689fbba2813ccb864949fa0dfb6000836103e860405180848152602001836fffffffffffffffffffffffffffffffff19166fffffffffffffffffffffffffffffffff19168152602001828152602001935050505060405180910390a1505050565b60035481565b600080600460008473ffffffffffffffffffffffffffffffffffffffff1673ffffffffffffffffffffffffffffffffffffffff16815260200190815260200160002060000154600460008573ffffffffffffffffffffffffffffffffffffffff1673ffffffffffffffffffffffffffffffffffffffff16815260200190815260200160002060010160009054906101000a90047001000000000000000000000000000000000291509150915091565b6000600460008373ffffffffffffffffffffffffffffffffffffffff1673ffffffffffffffffffffffffffffffffffffffff168152602001908152602001600020600201549050919050565b600081600460003373ffffffffffffffffffffffffffffffffffffffff1673ffffffffffffffffffffffffffffffffffffffff16815260200190815260200160002060020154101580156108d95750600082115b15610a4d5781600460003373ffffffffffffffffffffffffffffffffffffffff1673ffffffffffffffffffffffffffffffffffffffff1681526020019081526020016000206002016000828254039250508190555081600460008573ffffffffffffffffffffffffffffffffffffffff1673ffffffffffffffffffffffffffffffffffffffff168152602001908152602001600020600201600082825401925050819055508273ffffffffffffffffffffffffffffffffffffffff163373ffffffffffffffffffffffffffffffffffffffff167fddf252ad1be2c89b69c2b068fc378daa952ba7f163c4a11628f55a4df523b3ef846040518082815260200191505060405180910390a36001600460003373ffffffffffffffffffffffffffffffffffffffff1673ffffffffffffffffffffffffffffffffffffffff168152602001908152602001600020600001600082825401925050819055506001806000828254019250508190555060019050610a52565b600090505b92915050565b60015481565b6000600460008373ffffffffffffffffffffffffffffffffffffffff1673ffffffffffffffffffffffffffffffffffffffff168152602001908152602001600020600001549050919050565b6000600580549050905090565b602060405190810160405280600081525090565b815481835581811511610af257818360005260206000209182019101610af19190610af7565b5b505050565b610b1991905b80821115610b15576000816000905550600101610afd565b5090565b905600a165627a7a723058200595b5f7f7c218187fe89bd0752ea6a9e4b5eb5d7caf7143003a9c65ee03483b0029",
  "source": "pragma solidity ^0.4.4;\n \n import \"./Controlled.sol\";\n //tracks sends\ncontract sendTracker is Controlled  {\n    \n    //struct\n    uint public totalSends=0; // number of times token was sent\n    uint256 public totalSupply=100000;\n    uint256 public totalUnallocated=100000;\n    \n    struct User{\n        uint numSends;\n        bytes16 userName;\n         uint256 balance;\n    }\n    \n   \n    //mapping type  to  User struct \n    //using mapping we can search for a specific addy's data\n    mapping (address => User) users;\n    \n    // need to create an array to track all users currently\n    address[] public userAccts;\n    \n     //events\n    event UserInfo(\n        \n        uint numSends,\n        bytes16 userName,\n        uint256 balance\n    );\n    \n    function setUser (address _address, bytes16 _userName)  public {\n            // todo add check to make sure account is unique and validate stuff\n            \n            //populate the struct\n            \n            var user = users[_address];\n            user.numSends= 0;\n            user.userName = _userName;\n            totalUnallocated-=1000;\n            user.balance = 1000;\n            \n            // ?\n            userAccts.push(_address) -1;\n            UserInfo(0,  _userName, 1000);\n        }\n        \n        \n        function getUsers () view public returns(address[]){\n            return userAccts;\n        }\n        \n        function getUser (address _address) view public returns(uint, bytes16){\n            return(users[_address].numSends, users[_address].userName);\n        }\n        \n        function countUsers() view public returns(uint){\n            return userAccts.length;\n        }\n        \n           function transfer(address _to, uint256 _value) returns (bool success) {\n            //Default assumes totalSupply can't be over max (2^256 - 1).\n            //If your token leaves out totalSupply and can issue more tokens as time goes on, you need to check if it doesn't wrap.\n            //Replace the if with this one instead.\n            //if (balances[msg.sender] >= _value && balances[_to] + _value > balances[_to]) {\n           \n            if ( users[msg.sender].balance >= _value && _value > 0) {\n                users[msg.sender].balance -= _value;\n                users[_to].balance += _value;\n                Transfer(msg.sender, _to, _value);\n                users[msg.sender].numSends += 1 ;\n                totalSends += 1 ;\n                return true;\n            } else { return false; }\n        }\n        \n         function balanceOf(address _owner) constant returns (uint256 balance) {\n            return users[_owner].balance;\n        }\n        \n           function numSendsOf(address _owner) constant returns (uint256 balance) {\n            return users[_owner].numSends;\n        }\n       \n        \n  }\n  ",
  "sourcePath": "D:\\Truffle\\LUV\\contracts\\sendTracker.sol",
  "compiler": {
    "name": "solc",
    "version": "0.4.19+commit.c4cbbb05.Emscripten.clang"
  },
  "schemaVersion": "1.0.1",
  "updatedAt": "2018-02-21T01:27:23.076Z"
}